{
  "address": "0xEAf8FA5391e4D0C177d72f3194Cfd27E1E531c59",
  "abi": [
    {
      "inputs": [
        {
          "internalType": "address",
          "name": "priceFeedAddress",
          "type": "address"
        },
        {
          "internalType": "string",
          "name": "lowSvg",
          "type": "string"
        },
        {
          "internalType": "string",
          "name": "highSvg",
          "type": "string"
        }
      ],
      "stateMutability": "nonpayable",
      "type": "constructor"
    },
    {
      "anonymous": false,
      "inputs": [
        {
          "indexed": true,
          "internalType": "address",
          "name": "owner",
          "type": "address"
        },
        {
          "indexed": true,
          "internalType": "address",
          "name": "approved",
          "type": "address"
        },
        {
          "indexed": true,
          "internalType": "uint256",
          "name": "tokenId",
          "type": "uint256"
        }
      ],
      "name": "Approval",
      "type": "event"
    },
    {
      "anonymous": false,
      "inputs": [
        {
          "indexed": true,
          "internalType": "address",
          "name": "owner",
          "type": "address"
        },
        {
          "indexed": true,
          "internalType": "address",
          "name": "operator",
          "type": "address"
        },
        {
          "indexed": false,
          "internalType": "bool",
          "name": "approved",
          "type": "bool"
        }
      ],
      "name": "ApprovalForAll",
      "type": "event"
    },
    {
      "anonymous": false,
      "inputs": [
        {
          "indexed": true,
          "internalType": "uint256",
          "name": "tokenId",
          "type": "uint256"
        },
        {
          "indexed": false,
          "internalType": "int256",
          "name": "highValue",
          "type": "int256"
        }
      ],
      "name": "CreatedNFT",
      "type": "event"
    },
    {
      "anonymous": false,
      "inputs": [
        {
          "indexed": true,
          "internalType": "address",
          "name": "from",
          "type": "address"
        },
        {
          "indexed": true,
          "internalType": "address",
          "name": "to",
          "type": "address"
        },
        {
          "indexed": true,
          "internalType": "uint256",
          "name": "tokenId",
          "type": "uint256"
        }
      ],
      "name": "Transfer",
      "type": "event"
    },
    {
      "inputs": [
        {
          "internalType": "address",
          "name": "to",
          "type": "address"
        },
        {
          "internalType": "uint256",
          "name": "tokenId",
          "type": "uint256"
        }
      ],
      "name": "approve",
      "outputs": [],
      "stateMutability": "nonpayable",
      "type": "function"
    },
    {
      "inputs": [
        {
          "internalType": "address",
          "name": "owner",
          "type": "address"
        }
      ],
      "name": "balanceOf",
      "outputs": [
        {
          "internalType": "uint256",
          "name": "",
          "type": "uint256"
        }
      ],
      "stateMutability": "view",
      "type": "function"
    },
    {
      "inputs": [
        {
          "internalType": "uint256",
          "name": "tokenId",
          "type": "uint256"
        }
      ],
      "name": "getApproved",
      "outputs": [
        {
          "internalType": "address",
          "name": "",
          "type": "address"
        }
      ],
      "stateMutability": "view",
      "type": "function"
    },
    {
      "inputs": [
        {
          "internalType": "address",
          "name": "owner",
          "type": "address"
        },
        {
          "internalType": "address",
          "name": "operator",
          "type": "address"
        }
      ],
      "name": "isApprovedForAll",
      "outputs": [
        {
          "internalType": "bool",
          "name": "",
          "type": "bool"
        }
      ],
      "stateMutability": "view",
      "type": "function"
    },
    {
      "inputs": [
        {
          "internalType": "int256",
          "name": "highValue",
          "type": "int256"
        }
      ],
      "name": "mintNft",
      "outputs": [],
      "stateMutability": "nonpayable",
      "type": "function"
    },
    {
      "inputs": [],
      "name": "name",
      "outputs": [
        {
          "internalType": "string",
          "name": "",
          "type": "string"
        }
      ],
      "stateMutability": "view",
      "type": "function"
    },
    {
      "inputs": [
        {
          "internalType": "uint256",
          "name": "tokenId",
          "type": "uint256"
        }
      ],
      "name": "ownerOf",
      "outputs": [
        {
          "internalType": "address",
          "name": "",
          "type": "address"
        }
      ],
      "stateMutability": "view",
      "type": "function"
    },
    {
      "inputs": [
        {
          "internalType": "uint256",
          "name": "",
          "type": "uint256"
        }
      ],
      "name": "s_tokenIdToHighValues",
      "outputs": [
        {
          "internalType": "int256",
          "name": "",
          "type": "int256"
        }
      ],
      "stateMutability": "view",
      "type": "function"
    },
    {
      "inputs": [
        {
          "internalType": "address",
          "name": "from",
          "type": "address"
        },
        {
          "internalType": "address",
          "name": "to",
          "type": "address"
        },
        {
          "internalType": "uint256",
          "name": "tokenId",
          "type": "uint256"
        }
      ],
      "name": "safeTransferFrom",
      "outputs": [],
      "stateMutability": "nonpayable",
      "type": "function"
    },
    {
      "inputs": [
        {
          "internalType": "address",
          "name": "from",
          "type": "address"
        },
        {
          "internalType": "address",
          "name": "to",
          "type": "address"
        },
        {
          "internalType": "uint256",
          "name": "tokenId",
          "type": "uint256"
        },
        {
          "internalType": "bytes",
          "name": "data",
          "type": "bytes"
        }
      ],
      "name": "safeTransferFrom",
      "outputs": [],
      "stateMutability": "nonpayable",
      "type": "function"
    },
    {
      "inputs": [
        {
          "internalType": "address",
          "name": "operator",
          "type": "address"
        },
        {
          "internalType": "bool",
          "name": "approved",
          "type": "bool"
        }
      ],
      "name": "setApprovalForAll",
      "outputs": [],
      "stateMutability": "nonpayable",
      "type": "function"
    },
    {
      "inputs": [
        {
          "internalType": "bytes4",
          "name": "interfaceId",
          "type": "bytes4"
        }
      ],
      "name": "supportsInterface",
      "outputs": [
        {
          "internalType": "bool",
          "name": "",
          "type": "bool"
        }
      ],
      "stateMutability": "view",
      "type": "function"
    },
    {
      "inputs": [
        {
          "internalType": "string",
          "name": "svg",
          "type": "string"
        }
      ],
      "name": "svgToImageURI",
      "outputs": [
        {
          "internalType": "string",
          "name": "",
          "type": "string"
        }
      ],
      "stateMutability": "pure",
      "type": "function"
    },
    {
      "inputs": [],
      "name": "symbol",
      "outputs": [
        {
          "internalType": "string",
          "name": "",
          "type": "string"
        }
      ],
      "stateMutability": "view",
      "type": "function"
    },
    {
      "inputs": [
        {
          "internalType": "uint256",
          "name": "tokenId",
          "type": "uint256"
        }
      ],
      "name": "tokenURI",
      "outputs": [
        {
          "internalType": "string",
          "name": "",
          "type": "string"
        }
      ],
      "stateMutability": "view",
      "type": "function"
    },
    {
      "inputs": [
        {
          "internalType": "address",
          "name": "from",
          "type": "address"
        },
        {
          "internalType": "address",
          "name": "to",
          "type": "address"
        },
        {
          "internalType": "uint256",
          "name": "tokenId",
          "type": "uint256"
        }
      ],
      "name": "transferFrom",
      "outputs": [],
      "stateMutability": "nonpayable",
      "type": "function"
    }
  ],
  "transactionHash": "0xa9f7e91c5193fc5fca8b5e9bad216761589f0a3745e7d229b34de940b9e7c793",
  "args": [
    "0xD4a33860578De61DBAbDc8BFdb98FD742fA7028e",
    "<?xml version=\"1.0\" standalone=\"no\"?>\n<svg width=\"1024px\" height=\"1024px\" viewBox=\"0 0 1024 1024\" xmlns=\"http://www.w3.org/2000/svg\">\n  <path fill=\"#333\" d=\"M512 64C264.6 64 64 264.6 64 512s200.6 448 448 448 448-200.6 448-448S759.4 64 512 64zm0 820c-205.4 0-372-166.6-372-372s166.6-372 372-372 372 166.6 372 372-166.6 372-372 372z\"/>\n  <path fill=\"#E6E6E6\" d=\"M512 140c-205.4 0-372 166.6-372 372s166.6 372 372 372 372-166.6 372-372-166.6-372-372-372zM288 421a48.01 48.01 0 0 1 96 0 48.01 48.01 0 0 1-96 0zm376 272h-48.1c-4.2 0-7.8-3.2-8.1-7.4C604 636.1 562.5 597 512 597s-92.1 39.1-95.8 88.6c-.3 4.2-3.9 7.4-8.1 7.4H360a8 8 0 0 1-8-8.4c4.4-84.3 74.5-151.6 160-151.6s155.6 67.3 160 151.6a8 8 0 0 1-8 8.4zm24-224a48.01 48.01 0 0 1 0-96 48.01 48.01 0 0 1 0 96z\"/>\n  <path fill=\"#333\" d=\"M288 421a48 48 0 1 0 96 0 48 48 0 1 0-96 0zm224 112c-85.5 0-155.6 67.3-160 151.6a8 8 0 0 0 8 8.4h48.1c4.2 0 7.8-3.2 8.1-7.4 3.7-49.5 45.3-88.6 95.8-88.6s92 39.1 95.8 88.6c.3 4.2 3.9 7.4 8.1 7.4H664a8 8 0 0 0 8-8.4C667.6 600.3 597.5 533 512 533zm128-112a48 48 0 1 0 96 0 48 48 0 1 0-96 0z\"/>\n</svg>\n",
    "<svg viewBox=\"0 0 200 200\" width=\"400\"  height=\"400\" xmlns=\"http://www.w3.org/2000/svg\">\n  <circle cx=\"100\" cy=\"100\" fill=\"yellow\" r=\"78\" stroke=\"black\" stroke-width=\"3\"/>\n  <g class=\"eyes\">\n    <circle cx=\"61\" cy=\"82\" r=\"12\"/>\n    <circle cx=\"127\" cy=\"82\" r=\"12\"/>\n  </g>\n  <path d=\"m136.81 116.53c.69 26.17-64.11 42-81.52-.73\" style=\"fill:none; stroke: black; stroke-width: 3;\"/>\n</svg>"
  ],
  "numDeployments": 1,
  "solcInputHash": "7c523c74a9bb69c60c95d2e24db9f55b",
  "bytecode": "0x60a06040523480156200001157600080fd5b5060405162003785380380620037858339818101604052810190620000379190620004ee565b6040518060400160405280600f81526020017f44796e616d696320535647204e465400000000000000000000000000000000008152506040518060400160405280600381526020017f44534e00000000000000000000000000000000000000000000000000000000008152508160009080519060200190620000bb929190620003a9565b508060019080519060200190620000d4929190620003a9565b5050506000600681905550620000f0826200017160201b60201c565b6007908051906020019062000107929190620003a9565b5062000119816200017160201b60201c565b6008908051906020019062000130929190620003a9565b508273ffffffffffffffffffffffffffffffffffffffff1660808173ffffffffffffffffffffffffffffffffffffffff1660601b8152505050505062000946565b60606000620001ac836040516020016200018c9190620005bf565b6040516020818303038152906040526200020f60201b62000d691760201c565b90506040518060400160405280601a81526020017f646174613a696d6167652f7376672b786d6c3b6261736536342c00000000000081525081604051602001620001f8929190620005d8565b604051602081830303815290604052915050919050565b60606000825114156200023457604051806020016040528060008152509050620003a4565b600060405180606001604052806040815260200162003745604091399050600060036002855162000266919062000675565b620002729190620006d2565b60046200028091906200070a565b9050600060208262000293919062000675565b67ffffffffffffffff811115620002af57620002ae620008d8565b5b6040519080825280601f01601f191660200182016040528015620002e25781602001600182028036833780820191505090505b509050818152600183018586518101602084015b818310156200035f576003830192508251603f8160121c1685015160f81b8252600182019150603f81600c1c1685015160f81b8252600182019150603f8160061c1685015160f81b8252600182019150603f811685015160f81b825260018201915050620002f6565b6003895106600181146200037c57600281146200038d5762000398565b613d3d60f01b600283035262000398565b603d60f81b60018303525b50505050508093505050505b919050565b828054620003b790620007df565b90600052602060002090601f016020900481019282620003db576000855562000427565b82601f10620003f657805160ff191683800117855562000427565b8280016001018555821562000427579182015b828111156200042657825182559160200191906001019062000409565b5b5090506200043691906200043a565b5090565b5b80821115620004555760008160009055506001016200043b565b5090565b6000620004706200046a8462000629565b62000600565b9050828152602081018484840111156200048f576200048e6200090c565b5b6200049c848285620007a9565b509392505050565b600081519050620004b5816200092c565b92915050565b600082601f830112620004d357620004d262000907565b5b8151620004e584826020860162000459565b91505092915050565b6000806000606084860312156200050a576200050962000916565b5b60006200051a86828701620004a4565b935050602084015167ffffffffffffffff8111156200053e576200053d62000911565b5b6200054c86828701620004bb565b925050604084015167ffffffffffffffff81111562000570576200056f62000911565b5b6200057e86828701620004bb565b9150509250925092565b600062000595826200065f565b620005a181856200066a565b9350620005b3818560208601620007a9565b80840191505092915050565b6000620005cd828462000588565b915081905092915050565b6000620005e6828562000588565b9150620005f4828462000588565b91508190509392505050565b60006200060c6200061f565b90506200061a828262000815565b919050565b6000604051905090565b600067ffffffffffffffff821115620006475762000646620008d8565b5b62000652826200091b565b9050602081019050919050565b600081519050919050565b600081905092915050565b600062000682826200079f565b91506200068f836200079f565b9250827fffffffffffffffffffffffffffffffffffffffffffffffffffffffffffffffff03821115620006c757620006c66200084b565b5b828201905092915050565b6000620006df826200079f565b9150620006ec836200079f565b925082620006ff57620006fe6200087a565b5b828204905092915050565b600062000717826200079f565b915062000724836200079f565b9250817fffffffffffffffffffffffffffffffffffffffffffffffffffffffffffffffff048311821515161562000760576200075f6200084b565b5b828202905092915050565b600062000778826200077f565b9050919050565b600073ffffffffffffffffffffffffffffffffffffffff82169050919050565b6000819050919050565b60005b83811015620007c9578082015181840152602081019050620007ac565b83811115620007d9576000848401525b50505050565b60006002820490506001821680620007f857607f821691505b602082108114156200080f576200080e620008a9565b5b50919050565b62000820826200091b565b810181811067ffffffffffffffff82111715620008425762000841620008d8565b5b80604052505050565b7f4e487b7100000000000000000000000000000000000000000000000000000000600052601160045260246000fd5b7f4e487b7100000000000000000000000000000000000000000000000000000000600052601260045260246000fd5b7f4e487b7100000000000000000000000000000000000000000000000000000000600052602260045260246000fd5b7f4e487b7100000000000000000000000000000000000000000000000000000000600052604160045260246000fd5b600080fd5b600080fd5b600080fd5b600080fd5b6000601f19601f8301169050919050565b62000937816200076b565b81146200094357600080fd5b50565b60805160601c612de0620009656000396000610a820152612de06000f3fe608060405234801561001057600080fd5b50600436106101005760003560e01c80636352211e11610097578063b88d4fde11610066578063b88d4fde146102bd578063c87b56dd146102d9578063e4e65b0c14610309578063e985e9c51461033957610100565b80636352211e1461022357806370a082311461025357806395d89b4114610283578063a22cb465146102a157610100565b80631e930812116100d35780631e9308121461019f57806323b872dd146101bb57806330d871c6146101d757806342842e0e1461020757610100565b806301ffc9a71461010557806306fdde0314610135578063081812fc14610153578063095ea7b314610183575b600080fd5b61011f600480360381019061011a9190611d49565b610369565b60405161012c91906122c2565b60405180910390f35b61013d61044b565b60405161014a91906122f8565b60405180910390f35b61016d60048036038101906101689190611e19565b6104dd565b60405161017a919061225b565b60405180910390f35b61019d60048036038101906101989190611d09565b610523565b005b6101b960048036038101906101b49190611da3565b61063b565b005b6101d560048036038101906101d09190611bf3565b6106b3565b005b6101f160048036038101906101ec9190611dd0565b610713565b6040516101fe91906122f8565b60405180910390f35b610221600480360381019061021c9190611bf3565b6107a0565b005b61023d60048036038101906102389190611e19565b6107c0565b60405161024a919061225b565b60405180910390f35b61026d60048036038101906102689190611b86565b610872565b60405161027a919061249a565b60405180910390f35b61028b61092a565b60405161029891906122f8565b60405180910390f35b6102bb60048036038101906102b69190611cc9565b6109bc565b005b6102d760048036038101906102d29190611c46565b6109d2565b005b6102f360048036038101906102ee9190611e19565b610a34565b60405161030091906122f8565b60405180910390f35b610323600480360381019061031e9190611e19565b610cbd565b60405161033091906122dd565b60405180910390f35b610353600480360381019061034e9190611bb3565b610cd5565b60405161036091906122c2565b60405180910390f35b60007f80ac58cd000000000000000000000000000000000000000000000000000000007bffffffffffffffffffffffffffffffffffffffffffffffffffffffff1916827bffffffffffffffffffffffffffffffffffffffffffffffffffffffff1916148061043457507f5b5e139f000000000000000000000000000000000000000000000000000000007bffffffffffffffffffffffffffffffffffffffffffffffffffffffff1916827bffffffffffffffffffffffffffffffffffffffffffffffffffffffff1916145b80610444575061044382610eee565b5b9050919050565b60606000805461045a9061276a565b80601f01602080910402602001604051908101604052809291908181526020018280546104869061276a565b80156104d35780601f106104a8576101008083540402835291602001916104d3565b820191906000526020600020905b8154815290600101906020018083116104b657829003601f168201915b5050505050905090565b60006104e882610f58565b6004600083815260200190815260200160002060009054906101000a900473ffffffffffffffffffffffffffffffffffffffff169050919050565b600061052e826107c0565b90508073ffffffffffffffffffffffffffffffffffffffff168373ffffffffffffffffffffffffffffffffffffffff16141561059f576040517f08c379a00000000000000000000000000000000000000000000000000000000081526004016105969061243a565b60405180910390fd5b8073ffffffffffffffffffffffffffffffffffffffff166105be610fa3565b73ffffffffffffffffffffffffffffffffffffffff1614806105ed57506105ec816105e7610fa3565b610cd5565b5b61062c576040517f08c379a0000000000000000000000000000000000000000000000000000000008152600401610623906123da565b60405180910390fd5b6106368383610fab565b505050565b806009600060065481526020019081526020016000208190555061066133600654611064565b6001600654610670919061257f565b6006819055506006547f882d3b5a729a8bb95cf6c0083c99b42ecd9637123d4425bd7b768877fd8af8b0826040516106a891906122dd565b60405180910390a250565b6106c46106be610fa3565b82611082565b610703576040517f08c379a00000000000000000000000000000000000000000000000000000000081526004016106fa9061245a565b60405180910390fd5b61070e838383611117565b505050565b6060600061073f8360405160200161072b91906121d0565b604051602081830303815290604052610d69565b90506040518060400160405280601a81526020017f646174613a696d6167652f7376672b786d6c3b6261736536342c000000000000815250816040516020016107899291906121e7565b604051602081830303815290604052915050919050565b6107bb838383604051806020016040528060008152506109d2565b505050565b6000806002600084815260200190815260200160002060009054906101000a900473ffffffffffffffffffffffffffffffffffffffff169050600073ffffffffffffffffffffffffffffffffffffffff168173ffffffffffffffffffffffffffffffffffffffff161415610869576040517f08c379a00000000000000000000000000000000000000000000000000000000081526004016108609061241a565b60405180910390fd5b80915050919050565b60008073ffffffffffffffffffffffffffffffffffffffff168273ffffffffffffffffffffffffffffffffffffffff1614156108e3576040517f08c379a00000000000000000000000000000000000000000000000000000000081526004016108da906123ba565b60405180910390fd5b600360008373ffffffffffffffffffffffffffffffffffffffff1673ffffffffffffffffffffffffffffffffffffffff168152602001908152602001600020549050919050565b6060600180546109399061276a565b80601f01602080910402602001604051908101604052809291908181526020018280546109659061276a565b80156109b25780601f10610987576101008083540402835291602001916109b2565b820191906000526020600020905b81548152906001019060200180831161099557829003601f168201915b5050505050905090565b6109ce6109c7610fa3565b838361137e565b5050565b6109e36109dd610fa3565b83611082565b610a22576040517f08c379a0000000000000000000000000000000000000000000000000000000008152600401610a199061245a565b60405180910390fd5b610a2e848484846114eb565b50505050565b6060610a3f82611547565b610a7e576040517f08c379a0000000000000000000000000000000000000000000000000000000008152600401610a759061247a565b60405180910390fd5b60007f000000000000000000000000000000000000000000000000000000000000000073ffffffffffffffffffffffffffffffffffffffff1663feaf968c6040518163ffffffff1660e01b815260040160a06040518083038186803b158015610ae657600080fd5b505afa158015610afa573d6000803e3d6000fd5b505050506040513d601f19601f82011682018060405250810190610b1e9190611e46565b505050915050600060078054610b339061276a565b80601f0160208091040260200160405190810160405280929190818152602001828054610b5f9061276a565b8015610bac5780601f10610b8157610100808354040283529160200191610bac565b820191906000526020600020905b815481529060010190602001808311610b8f57829003601f168201915b5050505050905060096000858152602001908152602001600020548212610c5b5760088054610bda9061276a565b80601f0160208091040260200160405190810160405280929190818152602001828054610c069061276a565b8015610c535780601f10610c2857610100808354040283529160200191610c53565b820191906000526020600020905b815481529060010190602001808311610c3657829003601f168201915b505050505090505b610c636115b3565b610c94610c6e61044b565b83604051602001610c8092919061220b565b604051602081830303815290604052610d69565b604051602001610ca59291906121e7565b60405160208183030381529060405292505050919050565b60096020528060005260406000206000915090505481565b6000600560008473ffffffffffffffffffffffffffffffffffffffff1673ffffffffffffffffffffffffffffffffffffffff16815260200190815260200160002060008373ffffffffffffffffffffffffffffffffffffffff1673ffffffffffffffffffffffffffffffffffffffff16815260200190815260200160002060009054906101000a900460ff16905092915050565b6060600082511415610d8c57604051806020016040528060008152509050610ee9565b6000604051806060016040528060408152602001612d6b6040913990506000600360028551610dbb919061257f565b610dc591906125d5565b6004610dd19190612606565b90506000602082610de2919061257f565b67ffffffffffffffff811115610dfb57610dfa61285a565b5b6040519080825280601f01601f191660200182016040528015610e2d5781602001600182028036833780820191505090505b509050818152600183018586518101602084015b81831015610ea8576003830192508251603f8160121c1685015160f81b8252600182019150603f81600c1c1685015160f81b8252600182019150603f8160061c1685015160f81b8252600182019150603f811685015160f81b825260018201915050610e41565b600389510660018114610ec25760028114610ed257610edd565b613d3d60f01b6002830352610edd565b603d60f81b60018303525b50505050508093505050505b919050565b60007f01ffc9a7000000000000000000000000000000000000000000000000000000007bffffffffffffffffffffffffffffffffffffffffffffffffffffffff1916827bffffffffffffffffffffffffffffffffffffffffffffffffffffffff1916149050919050565b610f6181611547565b610fa0576040517f08c379a0000000000000000000000000000000000000000000000000000000008152600401610f979061241a565b60405180910390fd5b50565b600033905090565b816004600083815260200190815260200160002060006101000a81548173ffffffffffffffffffffffffffffffffffffffff021916908373ffffffffffffffffffffffffffffffffffffffff160217905550808273ffffffffffffffffffffffffffffffffffffffff1661101e836107c0565b73ffffffffffffffffffffffffffffffffffffffff167f8c5be1e5ebec7d5bd14f71427d1e84f3dd0314c0f7b2291e5b200ac8c7c3b92560405160405180910390a45050565b61107e8282604051806020016040528060008152506115f0565b5050565b60008061108e836107c0565b90508073ffffffffffffffffffffffffffffffffffffffff168473ffffffffffffffffffffffffffffffffffffffff1614806110d057506110cf8185610cd5565b5b8061110e57508373ffffffffffffffffffffffffffffffffffffffff166110f6846104dd565b73ffffffffffffffffffffffffffffffffffffffff16145b91505092915050565b8273ffffffffffffffffffffffffffffffffffffffff16611137826107c0565b73ffffffffffffffffffffffffffffffffffffffff161461118d576040517f08c379a00000000000000000000000000000000000000000000000000000000081526004016111849061233a565b60405180910390fd5b600073ffffffffffffffffffffffffffffffffffffffff168273ffffffffffffffffffffffffffffffffffffffff1614156111fd576040517f08c379a00000000000000000000000000000000000000000000000000000000081526004016111f49061237a565b60405180910390fd5b61120883838361164b565b611213600082610fab565b6001600360008573ffffffffffffffffffffffffffffffffffffffff1673ffffffffffffffffffffffffffffffffffffffff16815260200190815260200160002060008282546112639190612660565b925050819055506001600360008473ffffffffffffffffffffffffffffffffffffffff1673ffffffffffffffffffffffffffffffffffffffff16815260200190815260200160002060008282546112ba919061257f565b92505081905550816002600083815260200190815260200160002060006101000a81548173ffffffffffffffffffffffffffffffffffffffff021916908373ffffffffffffffffffffffffffffffffffffffff160217905550808273ffffffffffffffffffffffffffffffffffffffff168473ffffffffffffffffffffffffffffffffffffffff167fddf252ad1be2c89b69c2b068fc378daa952ba7f163c4a11628f55a4df523b3ef60405160405180910390a4611379838383611650565b505050565b8173ffffffffffffffffffffffffffffffffffffffff168373ffffffffffffffffffffffffffffffffffffffff1614156113ed576040517f08c379a00000000000000000000000000000000000000000000000000000000081526004016113e49061239a565b60405180910390fd5b80600560008573ffffffffffffffffffffffffffffffffffffffff1673ffffffffffffffffffffffffffffffffffffffff16815260200190815260200160002060008473ffffffffffffffffffffffffffffffffffffffff1673ffffffffffffffffffffffffffffffffffffffff16815260200190815260200160002060006101000a81548160ff0219169083151502179055508173ffffffffffffffffffffffffffffffffffffffff168373ffffffffffffffffffffffffffffffffffffffff167f17307eab39ab6107e8899845ad3d59bd9653f200f220920489ca2b5937696c31836040516114de91906122c2565b60405180910390a3505050565b6114f6848484611117565b61150284848484611655565b611541576040517f08c379a00000000000000000000000000000000000000000000000000000000081526004016115389061231a565b60405180910390fd5b50505050565b60008073ffffffffffffffffffffffffffffffffffffffff166002600084815260200190815260200160002060009054906101000a900473ffffffffffffffffffffffffffffffffffffffff1673ffffffffffffffffffffffffffffffffffffffff1614159050919050565b60606040518060400160405280601d81526020017f646174613a6170706c69636174696f6e2f6a736f6e3b6261736536342c000000815250905090565b6115fa83836117ec565b6116076000848484611655565b611646576040517f08c379a000000000000000000000000000000000000000000000000000000000815260040161163d9061231a565b60405180910390fd5b505050565b505050565b505050565b60006116768473ffffffffffffffffffffffffffffffffffffffff166119c6565b156117df578373ffffffffffffffffffffffffffffffffffffffff1663150b7a0261169f610fa3565b8786866040518563ffffffff1660e01b81526004016116c19493929190612276565b602060405180830381600087803b1580156116db57600080fd5b505af192505050801561170c57506040513d601f19601f820116820180604052508101906117099190611d76565b60015b61178f573d806000811461173c576040519150601f19603f3d011682016040523d82523d6000602084013e611741565b606091505b50600081511415611787576040517f08c379a000000000000000000000000000000000000000000000000000000000815260040161177e9061231a565b60405180910390fd5b805181602001fd5b63150b7a0260e01b7bffffffffffffffffffffffffffffffffffffffffffffffffffffffff1916817bffffffffffffffffffffffffffffffffffffffffffffffffffffffff1916149150506117e4565b600190505b949350505050565b600073ffffffffffffffffffffffffffffffffffffffff168273ffffffffffffffffffffffffffffffffffffffff16141561185c576040517f08c379a0000000000000000000000000000000000000000000000000000000008152600401611853906123fa565b60405180910390fd5b61186581611547565b156118a5576040517f08c379a000000000000000000000000000000000000000000000000000000000815260040161189c9061235a565b60405180910390fd5b6118b16000838361164b565b6001600360008473ffffffffffffffffffffffffffffffffffffffff1673ffffffffffffffffffffffffffffffffffffffff1681526020019081526020016000206000828254611901919061257f565b92505081905550816002600083815260200190815260200160002060006101000a81548173ffffffffffffffffffffffffffffffffffffffff021916908373ffffffffffffffffffffffffffffffffffffffff160217905550808273ffffffffffffffffffffffffffffffffffffffff16600073ffffffffffffffffffffffffffffffffffffffff167fddf252ad1be2c89b69c2b068fc378daa952ba7f163c4a11628f55a4df523b3ef60405160405180910390a46119c260008383611650565b5050565b6000808273ffffffffffffffffffffffffffffffffffffffff163b119050919050565b60006119fc6119f7846124da565b6124b5565b905082815260208101848484011115611a1857611a1761288e565b5b611a23848285612728565b509392505050565b6000611a3e611a398461250b565b6124b5565b905082815260208101848484011115611a5a57611a5961288e565b5b611a65848285612728565b509392505050565b600081359050611a7c81612ce0565b92915050565b600081359050611a9181612cf7565b92915050565b600081359050611aa681612d0e565b92915050565b600081519050611abb81612d0e565b92915050565b600082601f830112611ad657611ad5612889565b5b8135611ae68482602086016119e9565b91505092915050565b600081359050611afe81612d25565b92915050565b600081519050611b1381612d25565b92915050565b600082601f830112611b2e57611b2d612889565b5b8135611b3e848260208601611a2b565b91505092915050565b600081359050611b5681612d3c565b92915050565b600081519050611b6b81612d3c565b92915050565b600081519050611b8081612d53565b92915050565b600060208284031215611b9c57611b9b612898565b5b6000611baa84828501611a6d565b91505092915050565b60008060408385031215611bca57611bc9612898565b5b6000611bd885828601611a6d565b9250506020611be985828601611a6d565b9150509250929050565b600080600060608486031215611c0c57611c0b612898565b5b6000611c1a86828701611a6d565b9350506020611c2b86828701611a6d565b9250506040611c3c86828701611b47565b9150509250925092565b60008060008060808587031215611c6057611c5f612898565b5b6000611c6e87828801611a6d565b9450506020611c7f87828801611a6d565b9350506040611c9087828801611b47565b925050606085013567ffffffffffffffff811115611cb157611cb0612893565b5b611cbd87828801611ac1565b91505092959194509250565b60008060408385031215611ce057611cdf612898565b5b6000611cee85828601611a6d565b9250506020611cff85828601611a82565b9150509250929050565b60008060408385031215611d2057611d1f612898565b5b6000611d2e85828601611a6d565b9250506020611d3f85828601611b47565b9150509250929050565b600060208284031215611d5f57611d5e612898565b5b6000611d6d84828501611a97565b91505092915050565b600060208284031215611d8c57611d8b612898565b5b6000611d9a84828501611aac565b91505092915050565b600060208284031215611db957611db8612898565b5b6000611dc784828501611aef565b91505092915050565b600060208284031215611de657611de5612898565b5b600082013567ffffffffffffffff811115611e0457611e03612893565b5b611e1084828501611b19565b91505092915050565b600060208284031215611e2f57611e2e612898565b5b6000611e3d84828501611b47565b91505092915050565b600080600080600060a08688031215611e6257611e61612898565b5b6000611e7088828901611b71565b9550506020611e8188828901611b04565b9450506040611e9288828901611b5c565b9350506060611ea388828901611b5c565b9250506080611eb488828901611b71565b9150509295509295909350565b611eca81612694565b82525050565b611ed9816126a6565b82525050565b6000611eea8261253c565b611ef48185612552565b9350611f04818560208601612737565b611f0d8161289d565b840191505092915050565b611f21816126de565b82525050565b6000611f3282612547565b611f3c8185612563565b9350611f4c818560208601612737565b611f558161289d565b840191505092915050565b6000611f6b82612547565b611f758185612574565b9350611f85818560208601612737565b80840191505092915050565b6000611f9e600983612574565b9150611fa9826128ae565b600982019050919050565b6000611fc1603283612563565b9150611fcc826128d7565b604082019050919050565b6000611fe4602583612563565b9150611fef82612926565b604082019050919050565b6000612007601c83612563565b915061201282612975565b602082019050919050565b600061202a602483612563565b91506120358261299e565b604082019050919050565b600061204d601983612563565b9150612058826129ed565b602082019050919050565b6000612070602983612563565b915061207b82612a16565b604082019050919050565b6000612093604483612574565b915061209e82612a65565b604482019050919050565b60006120b6600283612574565b91506120c182612ada565b600282019050919050565b60006120d9603e83612563565b91506120e482612b03565b604082019050919050565b60006120fc602083612563565b915061210782612b52565b602082019050919050565b600061211f601883612563565b915061212a82612b7b565b602082019050919050565b6000612142602183612563565b915061214d82612ba4565b604082019050919050565b6000612165602e83612563565b915061217082612bf3565b604082019050919050565b6000612188604383612574565b915061219382612c42565b604382019050919050565b60006121ab602083612563565b91506121b682612cb7565b602082019050919050565b6121ca81612708565b82525050565b60006121dc8284611f60565b915081905092915050565b60006121f38285611f60565b91506121ff8284611f60565b91508190509392505050565b600061221682611f91565b91506122228285611f60565b915061222d82612086565b91506122388261217b565b91506122448284611f60565b915061224f826120a9565b91508190509392505050565b60006020820190506122706000830184611ec1565b92915050565b600060808201905061228b6000830187611ec1565b6122986020830186611ec1565b6122a560408301856121c1565b81810360608301526122b78184611edf565b905095945050505050565b60006020820190506122d76000830184611ed0565b92915050565b60006020820190506122f26000830184611f18565b92915050565b600060208201905081810360008301526123128184611f27565b905092915050565b6000602082019050818103600083015261233381611fb4565b9050919050565b6000602082019050818103600083015261235381611fd7565b9050919050565b6000602082019050818103600083015261237381611ffa565b9050919050565b600060208201905081810360008301526123938161201d565b9050919050565b600060208201905081810360008301526123b381612040565b9050919050565b600060208201905081810360008301526123d381612063565b9050919050565b600060208201905081810360008301526123f3816120cc565b9050919050565b60006020820190508181036000830152612413816120ef565b9050919050565b6000602082019050818103600083015261243381612112565b9050919050565b6000602082019050818103600083015261245381612135565b9050919050565b6000602082019050818103600083015261247381612158565b9050919050565b600060208201905081810360008301526124938161219e565b9050919050565b60006020820190506124af60008301846121c1565b92915050565b60006124bf6124d0565b90506124cb828261279c565b919050565b6000604051905090565b600067ffffffffffffffff8211156124f5576124f461285a565b5b6124fe8261289d565b9050602081019050919050565b600067ffffffffffffffff8211156125265761252561285a565b5b61252f8261289d565b9050602081019050919050565b600081519050919050565b600081519050919050565b600082825260208201905092915050565b600082825260208201905092915050565b600081905092915050565b600061258a82612708565b915061259583612708565b9250827fffffffffffffffffffffffffffffffffffffffffffffffffffffffffffffffff038211156125ca576125c96127cd565b5b828201905092915050565b60006125e082612708565b91506125eb83612708565b9250826125fb576125fa6127fc565b5b828204905092915050565b600061261182612708565b915061261c83612708565b9250817fffffffffffffffffffffffffffffffffffffffffffffffffffffffffffffffff0483118215151615612655576126546127cd565b5b828202905092915050565b600061266b82612708565b915061267683612708565b925082821015612689576126886127cd565b5b828203905092915050565b600061269f826126e8565b9050919050565b60008115159050919050565b60007fffffffff0000000000000000000000000000000000000000000000000000000082169050919050565b6000819050919050565b600073ffffffffffffffffffffffffffffffffffffffff82169050919050565b6000819050919050565b600069ffffffffffffffffffff82169050919050565b82818337600083830152505050565b60005b8381101561275557808201518184015260208101905061273a565b83811115612764576000848401525b50505050565b6000600282049050600182168061278257607f821691505b602082108114156127965761279561282b565b5b50919050565b6127a58261289d565b810181811067ffffffffffffffff821117156127c4576127c361285a565b5b80604052505050565b7f4e487b7100000000000000000000000000000000000000000000000000000000600052601160045260246000fd5b7f4e487b7100000000000000000000000000000000000000000000000000000000600052601260045260246000fd5b7f4e487b7100000000000000000000000000000000000000000000000000000000600052602260045260246000fd5b7f4e487b7100000000000000000000000000000000000000000000000000000000600052604160045260246000fd5b600080fd5b600080fd5b600080fd5b600080fd5b6000601f19601f8301169050919050565b7f7b226e616d65223a220000000000000000000000000000000000000000000000600082015250565b7f4552433732313a207472616e7366657220746f206e6f6e20455243373231526560008201527f63656976657220696d706c656d656e7465720000000000000000000000000000602082015250565b7f4552433732313a207472616e736665722066726f6d20696e636f72726563742060008201527f6f776e6572000000000000000000000000000000000000000000000000000000602082015250565b7f4552433732313a20746f6b656e20616c7265616479206d696e74656400000000600082015250565b7f4552433732313a207472616e7366657220746f20746865207a65726f2061646460008201527f7265737300000000000000000000000000000000000000000000000000000000602082015250565b7f4552433732313a20617070726f766520746f2063616c6c657200000000000000600082015250565b7f4552433732313a2061646472657373207a65726f206973206e6f74206120766160008201527f6c6964206f776e65720000000000000000000000000000000000000000000000602082015250565b7f222c20226465736372697074696f6e223a22416e204e4654207468617420636860008201527f616e676573206261736564206f6e2074686520436861696e6c696e6b2046656560208201527f64222c2000000000000000000000000000000000000000000000000000000000604082015250565b7f227d000000000000000000000000000000000000000000000000000000000000600082015250565b7f4552433732313a20617070726f76652063616c6c6572206973206e6f7420746f60008201527f6b656e206f776e6572206e6f7220617070726f76656420666f7220616c6c0000602082015250565b7f4552433732313a206d696e7420746f20746865207a65726f2061646472657373600082015250565b7f4552433732313a20696e76616c696420746f6b656e2049440000000000000000600082015250565b7f4552433732313a20617070726f76616c20746f2063757272656e74206f776e6560008201527f7200000000000000000000000000000000000000000000000000000000000000602082015250565b7f4552433732313a2063616c6c6572206973206e6f7420746f6b656e206f776e6560008201527f72206e6f7220617070726f766564000000000000000000000000000000000000602082015250565b7f2261747472696275746573223a205b7b2274726169745f74797065223a20226360008201527f6f6f6c6e657373222c202276616c7565223a203130307d5d2c2022696d61676560208201527f223a220000000000000000000000000000000000000000000000000000000000604082015250565b7f55524920517565727920666f72206e6f6e6578697374656e7420746f6b656e20600082015250565b612ce981612694565b8114612cf457600080fd5b50565b612d00816126a6565b8114612d0b57600080fd5b50565b612d17816126b2565b8114612d2257600080fd5b50565b612d2e816126de565b8114612d3957600080fd5b50565b612d4581612708565b8114612d5057600080fd5b50565b612d5c81612712565b8114612d6757600080fd5b5056fe4142434445464748494a4b4c4d4e4f505152535455565758595a6162636465666768696a6b6c6d6e6f707172737475767778797a303132333435363738392b2fa2646970667358221220ce3b0a7fd0854a35f1627d3af87c0bb8a4d22d0f7efce8c93d14ca314c8f872b64736f6c634300080700334142434445464748494a4b4c4d4e4f505152535455565758595a6162636465666768696a6b6c6d6e6f707172737475767778797a303132333435363738392b2f",
  "devdoc": {
    "kind": "dev",
    "methods": {
      "approve(address,uint256)": {
        "details": "See {IERC721-approve}."
      },
      "balanceOf(address)": {
        "details": "See {IERC721-balanceOf}."
      },
      "getApproved(uint256)": {
        "details": "See {IERC721-getApproved}."
      },
      "isApprovedForAll(address,address)": {
        "details": "See {IERC721-isApprovedForAll}."
      },
      "name()": {
        "details": "See {IERC721Metadata-name}."
      },
      "ownerOf(uint256)": {
        "details": "See {IERC721-ownerOf}."
      },
      "safeTransferFrom(address,address,uint256)": {
        "details": "See {IERC721-safeTransferFrom}."
      },
      "safeTransferFrom(address,address,uint256,bytes)": {
        "details": "See {IERC721-safeTransferFrom}."
      },
      "setApprovalForAll(address,bool)": {
        "details": "See {IERC721-setApprovalForAll}."
      },
      "supportsInterface(bytes4)": {
        "details": "See {IERC165-supportsInterface}."
      },
      "symbol()": {
        "details": "See {IERC721Metadata-symbol}."
      },
      "tokenURI(uint256)": {
        "details": "See {IERC721Metadata-tokenURI}."
      },
      "transferFrom(address,address,uint256)": {
        "details": "See {IERC721-transferFrom}."
      }
    },
    "version": 1
  },
  "userdoc": {
    "kind": "user",
    "methods": {},
    "version": 1
  },
  "storageLayout": {
    "storage": [
      {
        "astId": 1005,
        "contract": "contracts/DynamicSvgNft.sol:DynamicSvgNft",
        "label": "_name",
        "offset": 0,
        "slot": "0",
        "type": "t_string_storage"
      },
      {
        "astId": 1007,
        "contract": "contracts/DynamicSvgNft.sol:DynamicSvgNft",
        "label": "_symbol",
        "offset": 0,
        "slot": "1",
        "type": "t_string_storage"
      },
      {
        "astId": 1011,
        "contract": "contracts/DynamicSvgNft.sol:DynamicSvgNft",
        "label": "_owners",
        "offset": 0,
        "slot": "2",
        "type": "t_mapping(t_uint256,t_address)"
      },
      {
        "astId": 1015,
        "contract": "contracts/DynamicSvgNft.sol:DynamicSvgNft",
        "label": "_balances",
        "offset": 0,
        "slot": "3",
        "type": "t_mapping(t_address,t_uint256)"
      },
      {
        "astId": 1019,
        "contract": "contracts/DynamicSvgNft.sol:DynamicSvgNft",
        "label": "_tokenApprovals",
        "offset": 0,
        "slot": "4",
        "type": "t_mapping(t_uint256,t_address)"
      },
      {
        "astId": 1025,
        "contract": "contracts/DynamicSvgNft.sol:DynamicSvgNft",
        "label": "_operatorApprovals",
        "offset": 0,
        "slot": "5",
        "type": "t_mapping(t_address,t_mapping(t_address,t_bool))"
      },
      {
        "astId": 3150,
        "contract": "contracts/DynamicSvgNft.sol:DynamicSvgNft",
        "label": "s_tokenCounter",
        "offset": 0,
        "slot": "6",
        "type": "t_uint256"
      },
      {
        "astId": 3152,
        "contract": "contracts/DynamicSvgNft.sol:DynamicSvgNft",
        "label": "i_lowImageURI",
        "offset": 0,
        "slot": "7",
        "type": "t_string_storage"
      },
      {
        "astId": 3154,
        "contract": "contracts/DynamicSvgNft.sol:DynamicSvgNft",
        "label": "i_highImageURI",
        "offset": 0,
        "slot": "8",
        "type": "t_string_storage"
      },
      {
        "astId": 3164,
        "contract": "contracts/DynamicSvgNft.sol:DynamicSvgNft",
        "label": "s_tokenIdToHighValues",
        "offset": 0,
        "slot": "9",
        "type": "t_mapping(t_uint256,t_int256)"
      }
    ],
    "types": {
      "t_address": {
        "encoding": "inplace",
        "label": "address",
        "numberOfBytes": "20"
      },
      "t_bool": {
        "encoding": "inplace",
        "label": "bool",
        "numberOfBytes": "1"
      },
      "t_int256": {
        "encoding": "inplace",
        "label": "int256",
        "numberOfBytes": "32"
      },
      "t_mapping(t_address,t_bool)": {
        "encoding": "mapping",
        "key": "t_address",
        "label": "mapping(address => bool)",
        "numberOfBytes": "32",
        "value": "t_bool"
      },
      "t_mapping(t_address,t_mapping(t_address,t_bool))": {
        "encoding": "mapping",
        "key": "t_address",
        "label": "mapping(address => mapping(address => bool))",
        "numberOfBytes": "32",
        "value": "t_mapping(t_address,t_bool)"
      },
      "t_mapping(t_address,t_uint256)": {
        "encoding": "mapping",
        "key": "t_address",
        "label": "mapping(address => uint256)",
        "numberOfBytes": "32",
        "value": "t_uint256"
      },
      "t_mapping(t_uint256,t_address)": {
        "encoding": "mapping",
        "key": "t_uint256",
        "label": "mapping(uint256 => address)",
        "numberOfBytes": "32",
        "value": "t_address"
      },
      "t_mapping(t_uint256,t_int256)": {
        "encoding": "mapping",
        "key": "t_uint256",
        "label": "mapping(uint256 => int256)",
        "numberOfBytes": "32",
        "value": "t_int256"
      },
      "t_string_storage": {
        "encoding": "bytes",
        "label": "string",
        "numberOfBytes": "32"
      },
      "t_uint256": {
        "encoding": "inplace",
        "label": "uint256",
        "numberOfBytes": "32"
      }
    }
  }
}