{
  "address": "0xd455A340567CF1B7E517D6F2833b2Ce4ddC62Ae7",
  "abi": [
    {
      "inputs": [
        {
          "internalType": "address",
          "name": "vrfCoordinatorV2",
          "type": "address"
        },
        {
          "internalType": "uint64",
          "name": "subscriptionId",
          "type": "uint64"
        },
        {
          "internalType": "bytes32",
          "name": "gasLane",
          "type": "bytes32"
        },
        {
          "internalType": "uint32",
          "name": "callbackGasLimit",
          "type": "uint32"
        },
        {
          "internalType": "string[3]",
          "name": "dogTokenUris",
          "type": "string[3]"
        },
        {
          "internalType": "uint256",
          "name": "mintFee",
          "type": "uint256"
        }
      ],
      "stateMutability": "nonpayable",
      "type": "constructor"
    },
    {
      "inputs": [
        {
          "internalType": "address",
          "name": "have",
          "type": "address"
        },
        {
          "internalType": "address",
          "name": "want",
          "type": "address"
        }
      ],
      "name": "OnlyCoordinatorCanFulfill",
      "type": "error"
    },
    {
      "inputs": [],
      "name": "RandomIpfsNft__NeedMoreETHSent",
      "type": "error"
    },
    {
      "inputs": [],
      "name": "RandomIpfsNft__RangeOutOfBounds",
      "type": "error"
    },
    {
      "inputs": [],
      "name": "RandomIpfsNft__TransferFailed",
      "type": "error"
    },
    {
      "anonymous": false,
      "inputs": [
        {
          "indexed": true,
          "internalType": "address",
          "name": "owner",
          "type": "address"
        },
        {
          "indexed": true,
          "internalType": "address",
          "name": "approved",
          "type": "address"
        },
        {
          "indexed": true,
          "internalType": "uint256",
          "name": "tokenId",
          "type": "uint256"
        }
      ],
      "name": "Approval",
      "type": "event"
    },
    {
      "anonymous": false,
      "inputs": [
        {
          "indexed": true,
          "internalType": "address",
          "name": "owner",
          "type": "address"
        },
        {
          "indexed": true,
          "internalType": "address",
          "name": "operator",
          "type": "address"
        },
        {
          "indexed": false,
          "internalType": "bool",
          "name": "approved",
          "type": "bool"
        }
      ],
      "name": "ApprovalForAll",
      "type": "event"
    },
    {
      "anonymous": false,
      "inputs": [
        {
          "indexed": false,
          "internalType": "enum RandomIpfsNft.Breed",
          "name": "dogBreed",
          "type": "uint8"
        },
        {
          "indexed": false,
          "internalType": "address",
          "name": "minter",
          "type": "address"
        }
      ],
      "name": "NftMinted",
      "type": "event"
    },
    {
      "anonymous": false,
      "inputs": [
        {
          "indexed": true,
          "internalType": "uint256",
          "name": "requestId",
          "type": "uint256"
        },
        {
          "indexed": false,
          "internalType": "address",
          "name": "requester",
          "type": "address"
        }
      ],
      "name": "NftRequested",
      "type": "event"
    },
    {
      "anonymous": false,
      "inputs": [
        {
          "indexed": true,
          "internalType": "address",
          "name": "previousOwner",
          "type": "address"
        },
        {
          "indexed": true,
          "internalType": "address",
          "name": "newOwner",
          "type": "address"
        }
      ],
      "name": "OwnershipTransferred",
      "type": "event"
    },
    {
      "anonymous": false,
      "inputs": [
        {
          "indexed": true,
          "internalType": "address",
          "name": "from",
          "type": "address"
        },
        {
          "indexed": true,
          "internalType": "address",
          "name": "to",
          "type": "address"
        },
        {
          "indexed": true,
          "internalType": "uint256",
          "name": "tokenId",
          "type": "uint256"
        }
      ],
      "name": "Transfer",
      "type": "event"
    },
    {
      "inputs": [
        {
          "internalType": "address",
          "name": "to",
          "type": "address"
        },
        {
          "internalType": "uint256",
          "name": "tokenId",
          "type": "uint256"
        }
      ],
      "name": "approve",
      "outputs": [],
      "stateMutability": "nonpayable",
      "type": "function"
    },
    {
      "inputs": [
        {
          "internalType": "address",
          "name": "owner",
          "type": "address"
        }
      ],
      "name": "balanceOf",
      "outputs": [
        {
          "internalType": "uint256",
          "name": "",
          "type": "uint256"
        }
      ],
      "stateMutability": "view",
      "type": "function"
    },
    {
      "inputs": [
        {
          "internalType": "uint256",
          "name": "tokenId",
          "type": "uint256"
        }
      ],
      "name": "getApproved",
      "outputs": [
        {
          "internalType": "address",
          "name": "",
          "type": "address"
        }
      ],
      "stateMutability": "view",
      "type": "function"
    },
    {
      "inputs": [
        {
          "internalType": "uint256",
          "name": "moddedRng",
          "type": "uint256"
        }
      ],
      "name": "getBreedFromModdedRng",
      "outputs": [
        {
          "internalType": "enum RandomIpfsNft.Breed",
          "name": "",
          "type": "uint8"
        }
      ],
      "stateMutability": "pure",
      "type": "function"
    },
    {
      "inputs": [],
      "name": "getChanceArray",
      "outputs": [
        {
          "internalType": "uint256[3]",
          "name": "",
          "type": "uint256[3]"
        }
      ],
      "stateMutability": "pure",
      "type": "function"
    },
    {
      "inputs": [
        {
          "internalType": "uint256",
          "name": "index",
          "type": "uint256"
        }
      ],
      "name": "getDogTokenUris",
      "outputs": [
        {
          "internalType": "string",
          "name": "",
          "type": "string"
        }
      ],
      "stateMutability": "view",
      "type": "function"
    },
    {
      "inputs": [],
      "name": "getMintFee",
      "outputs": [
        {
          "internalType": "uint256",
          "name": "",
          "type": "uint256"
        }
      ],
      "stateMutability": "view",
      "type": "function"
    },
    {
      "inputs": [],
      "name": "getTokenCounter",
      "outputs": [
        {
          "internalType": "uint256",
          "name": "",
          "type": "uint256"
        }
      ],
      "stateMutability": "view",
      "type": "function"
    },
    {
      "inputs": [
        {
          "internalType": "address",
          "name": "owner",
          "type": "address"
        },
        {
          "internalType": "address",
          "name": "operator",
          "type": "address"
        }
      ],
      "name": "isApprovedForAll",
      "outputs": [
        {
          "internalType": "bool",
          "name": "",
          "type": "bool"
        }
      ],
      "stateMutability": "view",
      "type": "function"
    },
    {
      "inputs": [],
      "name": "name",
      "outputs": [
        {
          "internalType": "string",
          "name": "",
          "type": "string"
        }
      ],
      "stateMutability": "view",
      "type": "function"
    },
    {
      "inputs": [],
      "name": "owner",
      "outputs": [
        {
          "internalType": "address",
          "name": "",
          "type": "address"
        }
      ],
      "stateMutability": "view",
      "type": "function"
    },
    {
      "inputs": [
        {
          "internalType": "uint256",
          "name": "tokenId",
          "type": "uint256"
        }
      ],
      "name": "ownerOf",
      "outputs": [
        {
          "internalType": "address",
          "name": "",
          "type": "address"
        }
      ],
      "stateMutability": "view",
      "type": "function"
    },
    {
      "inputs": [
        {
          "internalType": "uint256",
          "name": "requestId",
          "type": "uint256"
        },
        {
          "internalType": "uint256[]",
          "name": "randomWords",
          "type": "uint256[]"
        }
      ],
      "name": "rawFulfillRandomWords",
      "outputs": [],
      "stateMutability": "nonpayable",
      "type": "function"
    },
    {
      "inputs": [],
      "name": "renounceOwnership",
      "outputs": [],
      "stateMutability": "nonpayable",
      "type": "function"
    },
    {
      "inputs": [],
      "name": "requestNft",
      "outputs": [
        {
          "internalType": "uint256",
          "name": "requestId",
          "type": "uint256"
        }
      ],
      "stateMutability": "payable",
      "type": "function"
    },
    {
      "inputs": [
        {
          "internalType": "uint256",
          "name": "",
          "type": "uint256"
        }
      ],
      "name": "s_requestIdToSender",
      "outputs": [
        {
          "internalType": "address",
          "name": "",
          "type": "address"
        }
      ],
      "stateMutability": "view",
      "type": "function"
    },
    {
      "inputs": [],
      "name": "s_tokenCounter",
      "outputs": [
        {
          "internalType": "uint256",
          "name": "",
          "type": "uint256"
        }
      ],
      "stateMutability": "view",
      "type": "function"
    },
    {
      "inputs": [
        {
          "internalType": "address",
          "name": "from",
          "type": "address"
        },
        {
          "internalType": "address",
          "name": "to",
          "type": "address"
        },
        {
          "internalType": "uint256",
          "name": "tokenId",
          "type": "uint256"
        }
      ],
      "name": "safeTransferFrom",
      "outputs": [],
      "stateMutability": "nonpayable",
      "type": "function"
    },
    {
      "inputs": [
        {
          "internalType": "address",
          "name": "from",
          "type": "address"
        },
        {
          "internalType": "address",
          "name": "to",
          "type": "address"
        },
        {
          "internalType": "uint256",
          "name": "tokenId",
          "type": "uint256"
        },
        {
          "internalType": "bytes",
          "name": "data",
          "type": "bytes"
        }
      ],
      "name": "safeTransferFrom",
      "outputs": [],
      "stateMutability": "nonpayable",
      "type": "function"
    },
    {
      "inputs": [
        {
          "internalType": "address",
          "name": "operator",
          "type": "address"
        },
        {
          "internalType": "bool",
          "name": "approved",
          "type": "bool"
        }
      ],
      "name": "setApprovalForAll",
      "outputs": [],
      "stateMutability": "nonpayable",
      "type": "function"
    },
    {
      "inputs": [
        {
          "internalType": "bytes4",
          "name": "interfaceId",
          "type": "bytes4"
        }
      ],
      "name": "supportsInterface",
      "outputs": [
        {
          "internalType": "bool",
          "name": "",
          "type": "bool"
        }
      ],
      "stateMutability": "view",
      "type": "function"
    },
    {
      "inputs": [],
      "name": "symbol",
      "outputs": [
        {
          "internalType": "string",
          "name": "",
          "type": "string"
        }
      ],
      "stateMutability": "view",
      "type": "function"
    },
    {
      "inputs": [
        {
          "internalType": "uint256",
          "name": "tokenId",
          "type": "uint256"
        }
      ],
      "name": "tokenURI",
      "outputs": [
        {
          "internalType": "string",
          "name": "",
          "type": "string"
        }
      ],
      "stateMutability": "view",
      "type": "function"
    },
    {
      "inputs": [
        {
          "internalType": "address",
          "name": "from",
          "type": "address"
        },
        {
          "internalType": "address",
          "name": "to",
          "type": "address"
        },
        {
          "internalType": "uint256",
          "name": "tokenId",
          "type": "uint256"
        }
      ],
      "name": "transferFrom",
      "outputs": [],
      "stateMutability": "nonpayable",
      "type": "function"
    },
    {
      "inputs": [
        {
          "internalType": "address",
          "name": "newOwner",
          "type": "address"
        }
      ],
      "name": "transferOwnership",
      "outputs": [],
      "stateMutability": "nonpayable",
      "type": "function"
    },
    {
      "inputs": [],
      "name": "withdraw",
      "outputs": [],
      "stateMutability": "nonpayable",
      "type": "function"
    }
  ],
  "transactionHash": "0xcf129599e597ffc4dbb5c4c5148a0ad48832c722f3a0fb218b7c782a1d495e05",
  "args": [
    "0x2Ca8E0C643bDe4C2E08ab1fA0da3401AdAD7734D",
    "797",
    "0x79d3d8832d904592c0bf9818b621522c988bb8b0c05cdc3b15aea1b6e8db0c15",
    "500000",
    [
      "ipfs://QmaVkBn2tKmjbhphU7eyztbvSQU5EXDdqRyXZtRhSGgJGo",
      "ipfs://QmYQC5aGZu2PTH8XzbJrbDnvhj3gVs7ya33H9mqUNvST3d",
      "ipfs://QmZYmH5iDbD6v3U2ixoVAjioSzvWJszDzYdbeCLquGSpVm"
    ],
    "100000000000000000"
  ],
  "numDeployments": 1,
  "solcInputHash": "7c523c74a9bb69c60c95d2e24db9f55b",
  "bytecode": "0x6101406040523480156200001257600080fd5b506040516200431f3803806200431f8339818101604052810190620000389190620005d7565b6040518060400160405280600f81526020017f52616e646f6d2049504653204e465400000000000000000000000000000000008152506040518060400160405280600381526020017f52494e0000000000000000000000000000000000000000000000000000000000815250878073ffffffffffffffffffffffffffffffffffffffff1660808173ffffffffffffffffffffffffffffffffffffffff1660601b81525050508160009080519060200190620000f59291906200029e565b5080600190805190602001906200010e9291906200029e565b5050506200013162000125620001d060201b60201c565b620001d860201b60201c565b8573ffffffffffffffffffffffffffffffffffffffff1660a08173ffffffffffffffffffffffffffffffffffffffff1660601b815250508467ffffffffffffffff1660c08167ffffffffffffffff1660c01b815250508360e081815250508263ffffffff166101008163ffffffff1660e01b8152505081600a906003620001ba9291906200032f565b5080610120818152505050505050505062000932565b600033905090565b6000600760009054906101000a900473ffffffffffffffffffffffffffffffffffffffff16905081600760006101000a81548173ffffffffffffffffffffffffffffffffffffffff021916908373ffffffffffffffffffffffffffffffffffffffff1602179055508173ffffffffffffffffffffffffffffffffffffffff168173ffffffffffffffffffffffffffffffffffffffff167f8be0079c531659141344cd1fd0a4f28419497f9722a3daafe3b4186f6b6457e060405160405180910390a35050565b828054620002ac90620007bc565b90600052602060002090601f016020900481019282620002d057600085556200031c565b82601f10620002eb57805160ff19168380011785556200031c565b828001600101855582156200031c579182015b828111156200031b578251825591602001919060010190620002fe565b5b5090506200032b919062000396565b5090565b82805482825590600052602060002090810192821562000383579160200282015b8281111562000382578251829080519060200190620003719291906200029e565b509160200191906001019062000350565b5b509050620003929190620003b5565b5090565b5b80821115620003b157600081600090555060010162000397565b5090565b5b80821115620003d95760008181620003cf9190620003dd565b50600101620003b6565b5090565b508054620003eb90620007bc565b6000825580601f10620003ff575062000420565b601f0160209004906000526020600020908101906200041f919062000396565b5b50565b60006200043a6200043484620006bb565b62000692565b905080828560208602820111156200045757620004566200088b565b5b60005b85811015620004ac57815167ffffffffffffffff81111562000481576200048062000886565b5b8086016200049089826200055f565b855260208501945060208401935050506001810190506200045a565b5050509392505050565b6000620004cd620004c784620006e4565b62000692565b905082815260208101848484011115620004ec57620004eb62000890565b5b620004f984828562000786565b509392505050565b6000815190506200051281620008b0565b92915050565b600082601f83011262000530576200052f62000886565b5b60036200053f84828562000423565b91505092915050565b6000815190506200055981620008ca565b92915050565b600082601f83011262000577576200057662000886565b5b815162000589848260208601620004b6565b91505092915050565b600081519050620005a381620008e4565b92915050565b600081519050620005ba81620008fe565b92915050565b600081519050620005d18162000918565b92915050565b60008060008060008060c08789031215620005f757620005f66200089a565b5b60006200060789828a0162000501565b96505060206200061a89828a01620005c0565b95505060406200062d89828a0162000548565b94505060606200064089828a01620005a9565b935050608087015167ffffffffffffffff81111562000664576200066362000895565b5b6200067289828a0162000518565b92505060a06200068589828a0162000592565b9150509295509295509295565b60006200069e620006b1565b9050620006ac8282620007f2565b919050565b6000604051905090565b600067ffffffffffffffff821115620006d957620006d862000857565b5b602082029050919050565b600067ffffffffffffffff82111562000702576200070162000857565b5b6200070d826200089f565b9050602081019050919050565b6000620007278262000738565b9050919050565b6000819050919050565b600073ffffffffffffffffffffffffffffffffffffffff82169050919050565b6000819050919050565b600063ffffffff82169050919050565b600067ffffffffffffffff82169050919050565b60005b83811015620007a657808201518184015260208101905062000789565b83811115620007b6576000848401525b50505050565b60006002820490506001821680620007d557607f821691505b60208210811415620007ec57620007eb62000828565b5b50919050565b620007fd826200089f565b810181811067ffffffffffffffff821117156200081f576200081e62000857565b5b80604052505050565b7f4e487b7100000000000000000000000000000000000000000000000000000000600052602260045260246000fd5b7f4e487b7100000000000000000000000000000000000000000000000000000000600052604160045260246000fd5b600080fd5b600080fd5b600080fd5b600080fd5b600080fd5b6000601f19601f8301169050919050565b620008bb816200071a565b8114620008c757600080fd5b50565b620008d5816200072e565b8114620008e157600080fd5b50565b620008ef8162000758565b8114620008fb57600080fd5b50565b620009098162000762565b81146200091557600080fd5b50565b620009238162000772565b81146200092f57600080fd5b50565b60805160601c60a05160601c60c05160c01c60e0516101005160e01c610120516139836200099c60003960008181610d760152610f7a01526000611054015260006110100152600061103101526000610fd401526000818161091d015261097101526139836000f3fe6080604052600436106101815760003560e01c806370a08231116100d1578063a36f573b1161008a578063b88d4fde11610064578063b88d4fde14610577578063c87b56dd146105a0578063e985e9c5146105dd578063f2fde38b1461061a57610181565b8063a36f573b146104df578063a51cccf31461051c578063aa1524911461055957610181565b806370a08231146103e1578063715018a61461041e5780637a5caab3146104355780638da5cb5b1461046057806395d89b411461048b578063a22cb465146104b657610181565b806323b872dd1161013e57806342842e0e1161011857806342842e0e146103255780635dacf5f41461034e5780636352211e146103795780636e02007d146103b657610181565b806323b872dd146102a85780633af25975146102d15780633ccfd60b1461030e57610181565b806301ffc9a71461018657806306fdde03146101c3578063081812fc146101ee578063095ea7b31461022b5780630b21a83b146102545780631fe543e31461027f575b600080fd5b34801561019257600080fd5b506101ad60048036038101906101a8919061280d565b610643565b6040516101ba9190612da7565b60405180910390f35b3480156101cf57600080fd5b506101d8610725565b6040516101e59190612e59565b60405180910390f35b3480156101fa57600080fd5b5061021560048036038101906102109190612867565b6107b7565b6040516102229190612cfc565b60405180910390f35b34801561023757600080fd5b50610252600480360381019061024d91906127cd565b6107fd565b005b34801561026057600080fd5b50610269610915565b604051610276919061303b565b60405180910390f35b34801561028b57600080fd5b506102a660048036038101906102a191906128c1565b61091b565b005b3480156102b457600080fd5b506102cf60048036038101906102ca91906126b7565b6109db565b005b3480156102dd57600080fd5b506102f860048036038101906102f39190612867565b610a3b565b6040516103059190612e59565b60405180910390f35b34801561031a57600080fd5b50610323610aeb565b005b34801561033157600080fd5b5061034c600480360381019061034791906126b7565b610b9f565b005b34801561035a57600080fd5b50610363610bbf565b6040516103709190612d8c565b60405180910390f35b34801561038557600080fd5b506103a0600480360381019061039b9190612867565b610bea565b6040516103ad9190612cfc565b60405180910390f35b3480156103c257600080fd5b506103cb610c9c565b6040516103d8919061303b565b60405180910390f35b3480156103ed57600080fd5b506104086004803603810190610403919061264a565b610ca6565b604051610415919061303b565b60405180910390f35b34801561042a57600080fd5b50610433610d5e565b005b34801561044157600080fd5b5061044a610d72565b604051610457919061303b565b60405180910390f35b34801561046c57600080fd5b50610475610d9a565b6040516104829190612cfc565b60405180910390f35b34801561049757600080fd5b506104a0610dc4565b6040516104ad9190612e59565b60405180910390f35b3480156104c257600080fd5b506104dd60048036038101906104d8919061278d565b610e56565b005b3480156104eb57600080fd5b5061050660048036038101906105019190612867565b610e6c565b6040516105139190612cfc565b60405180910390f35b34801561052857600080fd5b50610543600480360381019061053e9190612867565b610e9f565b6040516105509190612e15565b60405180910390f35b610561610f76565b60405161056e919061303b565b60405180910390f35b34801561058357600080fd5b5061059e6004803603810190610599919061270a565b611176565b005b3480156105ac57600080fd5b506105c760048036038101906105c29190612867565b6111d8565b6040516105d49190612e59565b60405180910390f35b3480156105e957600080fd5b5061060460048036038101906105ff9190612677565b6112eb565b6040516106119190612da7565b60405180910390f35b34801561062657600080fd5b50610641600480360381019061063c919061264a565b61137f565b005b60007f80ac58cd000000000000000000000000000000000000000000000000000000007bffffffffffffffffffffffffffffffffffffffffffffffffffffffff1916827bffffffffffffffffffffffffffffffffffffffffffffffffffffffff1916148061070e57507f5b5e139f000000000000000000000000000000000000000000000000000000007bffffffffffffffffffffffffffffffffffffffffffffffffffffffff1916827bffffffffffffffffffffffffffffffffffffffffffffffffffffffff1916145b8061071e575061071d82611403565b5b9050919050565b60606000805461073490613325565b80601f016020809104026020016040519081016040528092919081815260200182805461076090613325565b80156107ad5780601f10610782576101008083540402835291602001916107ad565b820191906000526020600020905b81548152906001019060200180831161079057829003601f168201915b5050505050905090565b60006107c28261146d565b6004600083815260200190815260200160002060009054906101000a900473ffffffffffffffffffffffffffffffffffffffff169050919050565b600061080882610bea565b90508073ffffffffffffffffffffffffffffffffffffffff168373ffffffffffffffffffffffffffffffffffffffff161415610879576040517f08c379a000000000000000000000000000000000000000000000000000000000815260040161087090612ffb565b60405180910390fd5b8073ffffffffffffffffffffffffffffffffffffffff166108986114b8565b73ffffffffffffffffffffffffffffffffffffffff1614806108c757506108c6816108c16114b8565b6112eb565b5b610906576040517f08c379a00000000000000000000000000000000000000000000000000000000081526004016108fd90612f7b565b60405180910390fd5b61091083836114c0565b505050565b60095481565b7f000000000000000000000000000000000000000000000000000000000000000073ffffffffffffffffffffffffffffffffffffffff163373ffffffffffffffffffffffffffffffffffffffff16146109cd57337f00000000000000000000000000000000000000000000000000000000000000006040517f1cf993f40000000000000000000000000000000000000000000000000000000081526004016109c4929190612d17565b60405180910390fd5b6109d78282611579565b5050565b6109ec6109e66114b8565b82611719565b610a2b576040517f08c379a0000000000000000000000000000000000000000000000000000000008152600401610a229061301b565b60405180910390fd5b610a368383836117ae565b505050565b6060600a8281548110610a5157610a506134be565b5b906000526020600020018054610a6690613325565b80601f0160208091040260200160405190810160405280929190818152602001828054610a9290613325565b8015610adf5780601f10610ab457610100808354040283529160200191610adf565b820191906000526020600020905b815481529060010190602001808311610ac257829003601f168201915b50505050509050919050565b610af3611a15565b600047905060003373ffffffffffffffffffffffffffffffffffffffff1682604051610b1e90612ce7565b60006040518083038185875af1925050503d8060008114610b5b576040519150601f19603f3d011682016040523d82523d6000602084013e610b60565b606091505b5050905080610b9b576040517fca7e25b700000000000000000000000000000000000000000000000000000000815260040160405180910390fd5b5050565b610bba83838360405180602001604052806000815250611176565b505050565b610bc76123f9565b6040518060600160405280600a8152602001601e81526020016064815250905090565b6000806002600084815260200190815260200160002060009054906101000a900473ffffffffffffffffffffffffffffffffffffffff169050600073ffffffffffffffffffffffffffffffffffffffff168173ffffffffffffffffffffffffffffffffffffffff161415610c93576040517f08c379a0000000000000000000000000000000000000000000000000000000008152600401610c8a90612fdb565b60405180910390fd5b80915050919050565b6000600954905090565b60008073ffffffffffffffffffffffffffffffffffffffff168273ffffffffffffffffffffffffffffffffffffffff161415610d17576040517f08c379a0000000000000000000000000000000000000000000000000000000008152600401610d0e90612f3b565b60405180910390fd5b600360008373ffffffffffffffffffffffffffffffffffffffff1673ffffffffffffffffffffffffffffffffffffffff168152602001908152602001600020549050919050565b610d66611a15565b610d706000611a93565b565b60007f0000000000000000000000000000000000000000000000000000000000000000905090565b6000600760009054906101000a900473ffffffffffffffffffffffffffffffffffffffff16905090565b606060018054610dd390613325565b80601f0160208091040260200160405190810160405280929190818152602001828054610dff90613325565b8015610e4c5780601f10610e2157610100808354040283529160200191610e4c565b820191906000526020600020905b815481529060010190602001808311610e2f57829003601f168201915b5050505050905090565b610e68610e616114b8565b8383611b59565b5050565b60086020528060005260406000206000915054906101000a900473ffffffffffffffffffffffffffffffffffffffff1681565b600080600090506000610eb0610bbf565b905060005b6003811015610f3e57828510158015610eef5750818160038110610edc57610edb6134be565b5b602002015183610eec9190613153565b85105b15610f1157806002811115610f0757610f06613460565b5b9350505050610f71565b818160038110610f2457610f236134be565b5b602002015192508080610f3690613388565b915050610eb5565b506040517f12806c9d00000000000000000000000000000000000000000000000000000000815260040160405180910390fd5b919050565b60007f0000000000000000000000000000000000000000000000000000000000000000341015610fd2576040517fb90f491000000000000000000000000000000000000000000000000000000000815260040160405180910390fd5b7f000000000000000000000000000000000000000000000000000000000000000073ffffffffffffffffffffffffffffffffffffffff16635d3b1d307f00000000000000000000000000000000000000000000000000000000000000007f000000000000000000000000000000000000000000000000000000000000000060037f000000000000000000000000000000000000000000000000000000000000000060016040518663ffffffff1660e01b8152600401611095959493929190612dc2565b602060405180830381600087803b1580156110af57600080fd5b505af11580156110c3573d6000803e3d6000fd5b505050506040513d601f19601f820116820180604052508101906110e79190612894565b9050336008600083815260200190815260200160002060006101000a81548173ffffffffffffffffffffffffffffffffffffffff021916908373ffffffffffffffffffffffffffffffffffffffff160217905550807ff873236e6cc0ecc5be1a9a35c95ee5b8d1ac4cc7bfef0cc5060391d6cc98e26b3360405161116b9190612cfc565b60405180910390a290565b6111876111816114b8565b83611719565b6111c6576040517f08c379a00000000000000000000000000000000000000000000000000000000081526004016111bd9061301b565b60405180910390fd5b6111d284848484611cc6565b50505050565b60606111e38261146d565b600060066000848152602001908152602001600020805461120390613325565b80601f016020809104026020016040519081016040528092919081815260200182805461122f90613325565b801561127c5780601f106112515761010080835404028352916020019161127c565b820191906000526020600020905b81548152906001019060200180831161125f57829003601f168201915b50505050509050600061128d611d22565b90506000815114156112a35781925050506112e6565b6000825111156112d85780826040516020016112c0929190612cc3565b604051602081830303815290604052925050506112e6565b6112e184611d39565b925050505b919050565b6000600560008473ffffffffffffffffffffffffffffffffffffffff1673ffffffffffffffffffffffffffffffffffffffff16815260200190815260200160002060008373ffffffffffffffffffffffffffffffffffffffff1673ffffffffffffffffffffffffffffffffffffffff16815260200190815260200160002060009054906101000a900460ff16905092915050565b611387611a15565b600073ffffffffffffffffffffffffffffffffffffffff168173ffffffffffffffffffffffffffffffffffffffff1614156113f7576040517f08c379a00000000000000000000000000000000000000000000000000000000081526004016113ee90612e9b565b60405180910390fd5b61140081611a93565b50565b60007f01ffc9a7000000000000000000000000000000000000000000000000000000007bffffffffffffffffffffffffffffffffffffffffffffffffffffffff1916827bffffffffffffffffffffffffffffffffffffffffffffffffffffffff1916149050919050565b61147681611da1565b6114b5576040517f08c379a00000000000000000000000000000000000000000000000000000000081526004016114ac90612fdb565b60405180910390fd5b50565b600033905090565b816004600083815260200190815260200160002060006101000a81548173ffffffffffffffffffffffffffffffffffffffff021916908373ffffffffffffffffffffffffffffffffffffffff160217905550808273ffffffffffffffffffffffffffffffffffffffff1661153383610bea565b73ffffffffffffffffffffffffffffffffffffffff167f8c5be1e5ebec7d5bd14f71427d1e84f3dd0314c0f7b2291e5b200ac8c7c3b92560405160405180910390a45050565b60006008600084815260200190815260200160002060009054906101000a900473ffffffffffffffffffffffffffffffffffffffff1690506000600954905060006064846000815181106115d0576115cf6134be565b5b60200260200101516115e291906133d1565b905060006115ef82610e9f565b9050600954600960008282546116059190613153565b925050819055506116168484611e0d565b6116d883600a83600281111561162f5761162e613460565b5b815481106116405761163f6134be565b5b90600052602060002001805461165590613325565b80601f016020809104026020016040519081016040528092919081815260200182805461168190613325565b80156116ce5780601f106116a3576101008083540402835291602001916116ce565b820191906000526020600020905b8154815290600101906020018083116116b157829003601f168201915b5050505050611e2b565b7f8a269f26b688e110e9cbd887d163dab35cae678fa353a0292de532c0cac1ecdc8185604051611709929190612e30565b60405180910390a1505050505050565b60008061172583610bea565b90508073ffffffffffffffffffffffffffffffffffffffff168473ffffffffffffffffffffffffffffffffffffffff161480611767575061176681856112eb565b5b806117a557508373ffffffffffffffffffffffffffffffffffffffff1661178d846107b7565b73ffffffffffffffffffffffffffffffffffffffff16145b91505092915050565b8273ffffffffffffffffffffffffffffffffffffffff166117ce82610bea565b73ffffffffffffffffffffffffffffffffffffffff1614611824576040517f08c379a000000000000000000000000000000000000000000000000000000000815260040161181b90612ebb565b60405180910390fd5b600073ffffffffffffffffffffffffffffffffffffffff168273ffffffffffffffffffffffffffffffffffffffff161415611894576040517f08c379a000000000000000000000000000000000000000000000000000000000815260040161188b90612efb565b60405180910390fd5b61189f838383611e9f565b6118aa6000826114c0565b6001600360008573ffffffffffffffffffffffffffffffffffffffff1673ffffffffffffffffffffffffffffffffffffffff16815260200190815260200160002060008282546118fa91906131da565b925050819055506001600360008473ffffffffffffffffffffffffffffffffffffffff1673ffffffffffffffffffffffffffffffffffffffff16815260200190815260200160002060008282546119519190613153565b92505081905550816002600083815260200190815260200160002060006101000a81548173ffffffffffffffffffffffffffffffffffffffff021916908373ffffffffffffffffffffffffffffffffffffffff160217905550808273ffffffffffffffffffffffffffffffffffffffff168473ffffffffffffffffffffffffffffffffffffffff167fddf252ad1be2c89b69c2b068fc378daa952ba7f163c4a11628f55a4df523b3ef60405160405180910390a4611a10838383611ea4565b505050565b611a1d6114b8565b73ffffffffffffffffffffffffffffffffffffffff16611a3b610d9a565b73ffffffffffffffffffffffffffffffffffffffff1614611a91576040517f08c379a0000000000000000000000000000000000000000000000000000000008152600401611a8890612fbb565b60405180910390fd5b565b6000600760009054906101000a900473ffffffffffffffffffffffffffffffffffffffff16905081600760006101000a81548173ffffffffffffffffffffffffffffffffffffffff021916908373ffffffffffffffffffffffffffffffffffffffff1602179055508173ffffffffffffffffffffffffffffffffffffffff168173ffffffffffffffffffffffffffffffffffffffff167f8be0079c531659141344cd1fd0a4f28419497f9722a3daafe3b4186f6b6457e060405160405180910390a35050565b8173ffffffffffffffffffffffffffffffffffffffff168373ffffffffffffffffffffffffffffffffffffffff161415611bc8576040517f08c379a0000000000000000000000000000000000000000000000000000000008152600401611bbf90612f1b565b60405180910390fd5b80600560008573ffffffffffffffffffffffffffffffffffffffff1673ffffffffffffffffffffffffffffffffffffffff16815260200190815260200160002060008473ffffffffffffffffffffffffffffffffffffffff1673ffffffffffffffffffffffffffffffffffffffff16815260200190815260200160002060006101000a81548160ff0219169083151502179055508173ffffffffffffffffffffffffffffffffffffffff168373ffffffffffffffffffffffffffffffffffffffff167f17307eab39ab6107e8899845ad3d59bd9653f200f220920489ca2b5937696c3183604051611cb99190612da7565b60405180910390a3505050565b611cd18484846117ae565b611cdd84848484611ea9565b611d1c576040517f08c379a0000000000000000000000000000000000000000000000000000000008152600401611d1390612e7b565b60405180910390fd5b50505050565b606060405180602001604052806000815250905090565b6060611d448261146d565b6000611d4e611d22565b90506000815111611d6e5760405180602001604052806000815250611d99565b80611d7884612040565b604051602001611d89929190612cc3565b6040516020818303038152906040525b915050919050565b60008073ffffffffffffffffffffffffffffffffffffffff166002600084815260200190815260200160002060009054906101000a900473ffffffffffffffffffffffffffffffffffffffff1673ffffffffffffffffffffffffffffffffffffffff1614159050919050565b611e278282604051806020016040528060008152506121a1565b5050565b611e3482611da1565b611e73576040517f08c379a0000000000000000000000000000000000000000000000000000000008152600401611e6a90612f5b565b60405180910390fd5b80600660008481526020019081526020016000209080519060200190611e9a92919061241b565b505050565b505050565b505050565b6000611eca8473ffffffffffffffffffffffffffffffffffffffff166121fc565b15612033578373ffffffffffffffffffffffffffffffffffffffff1663150b7a02611ef36114b8565b8786866040518563ffffffff1660e01b8152600401611f159493929190612d40565b602060405180830381600087803b158015611f2f57600080fd5b505af1925050508015611f6057506040513d601f19601f82011682018060405250810190611f5d919061283a565b60015b611fe3573d8060008114611f90576040519150601f19603f3d011682016040523d82523d6000602084013e611f95565b606091505b50600081511415611fdb576040517f08c379a0000000000000000000000000000000000000000000000000000000008152600401611fd290612e7b565b60405180910390fd5b805181602001fd5b63150b7a0260e01b7bffffffffffffffffffffffffffffffffffffffffffffffffffffffff1916817bffffffffffffffffffffffffffffffffffffffffffffffffffffffff191614915050612038565b600190505b949350505050565b60606000821415612088576040518060400160405280600181526020017f3000000000000000000000000000000000000000000000000000000000000000815250905061219c565b600082905060005b600082146120ba5780806120a390613388565b915050600a826120b391906131a9565b9150612090565b60008167ffffffffffffffff8111156120d6576120d56134ed565b5b6040519080825280601f01601f1916602001820160405280156121085781602001600182028036833780820191505090505b5090505b600085146121955760018261212191906131da565b9150600a8561213091906133d1565b603061213c9190613153565b60f81b818381518110612152576121516134be565b5b60200101907effffffffffffffffffffffffffffffffffffffffffffffffffffffffffffff1916908160001a905350600a8561218e91906131a9565b945061210c565b8093505050505b919050565b6121ab838361221f565b6121b86000848484611ea9565b6121f7576040517f08c379a00000000000000000000000000000000000000000000000000000000081526004016121ee90612e7b565b60405180910390fd5b505050565b6000808273ffffffffffffffffffffffffffffffffffffffff163b119050919050565b600073ffffffffffffffffffffffffffffffffffffffff168273ffffffffffffffffffffffffffffffffffffffff16141561228f576040517f08c379a000000000000000000000000000000000000000000000000000000000815260040161228690612f9b565b60405180910390fd5b61229881611da1565b156122d8576040517f08c379a00000000000000000000000000000000000000000000000000000000081526004016122cf90612edb565b60405180910390fd5b6122e460008383611e9f565b6001600360008473ffffffffffffffffffffffffffffffffffffffff1673ffffffffffffffffffffffffffffffffffffffff16815260200190815260200160002060008282546123349190613153565b92505081905550816002600083815260200190815260200160002060006101000a81548173ffffffffffffffffffffffffffffffffffffffff021916908373ffffffffffffffffffffffffffffffffffffffff160217905550808273ffffffffffffffffffffffffffffffffffffffff16600073ffffffffffffffffffffffffffffffffffffffff167fddf252ad1be2c89b69c2b068fc378daa952ba7f163c4a11628f55a4df523b3ef60405160405180910390a46123f560008383611ea4565b5050565b6040518060600160405280600390602082028036833780820191505090505090565b82805461242790613325565b90600052602060002090601f0160209004810192826124495760008555612490565b82601f1061246257805160ff1916838001178555612490565b82800160010185558215612490579182015b8281111561248f578251825591602001919060010190612474565b5b50905061249d91906124a1565b5090565b5b808211156124ba5760008160009055506001016124a2565b5090565b60006124d16124cc8461307b565b613056565b905080838252602082019050828560208602820111156124f4576124f3613521565b5b60005b85811015612524578161250a8882612620565b8452602084019350602083019250506001810190506124f7565b5050509392505050565b600061254161253c846130a7565b613056565b90508281526020810184848401111561255d5761255c613526565b5b6125688482856132e3565b509392505050565b60008135905061257f816138f1565b92915050565b600082601f83011261259a5761259961351c565b5b81356125aa8482602086016124be565b91505092915050565b6000813590506125c281613908565b92915050565b6000813590506125d78161391f565b92915050565b6000815190506125ec8161391f565b92915050565b600082601f8301126126075761260661351c565b5b813561261784826020860161252e565b91505092915050565b60008135905061262f81613936565b92915050565b60008151905061264481613936565b92915050565b6000602082840312156126605761265f613530565b5b600061266e84828501612570565b91505092915050565b6000806040838503121561268e5761268d613530565b5b600061269c85828601612570565b92505060206126ad85828601612570565b9150509250929050565b6000806000606084860312156126d0576126cf613530565b5b60006126de86828701612570565b93505060206126ef86828701612570565b925050604061270086828701612620565b9150509250925092565b6000806000806080858703121561272457612723613530565b5b600061273287828801612570565b945050602061274387828801612570565b935050604061275487828801612620565b925050606085013567ffffffffffffffff8111156127755761277461352b565b5b612781878288016125f2565b91505092959194509250565b600080604083850312156127a4576127a3613530565b5b60006127b285828601612570565b92505060206127c3858286016125b3565b9150509250929050565b600080604083850312156127e4576127e3613530565b5b60006127f285828601612570565b925050602061280385828601612620565b9150509250929050565b60006020828403121561282357612822613530565b5b6000612831848285016125c8565b91505092915050565b6000602082840312156128505761284f613530565b5b600061285e848285016125dd565b91505092915050565b60006020828403121561287d5761287c613530565b5b600061288b84828501612620565b91505092915050565b6000602082840312156128aa576128a9613530565b5b60006128b884828501612635565b91505092915050565b600080604083850312156128d8576128d7613530565b5b60006128e685828601612620565b925050602083013567ffffffffffffffff8111156129075761290661352b565b5b61291385828601612585565b9150509250929050565b60006129298383612c87565b60208301905092915050565b61293e8161320e565b82525050565b61294d816130e2565b6129578184613110565b9250612962826130d8565b8060005b8381101561299357815161297a878261291d565b965061298583613103565b925050600181019050612966565b505050505050565b6129a481613220565b82525050565b6129b38161322c565b82525050565b60006129c4826130ed565b6129ce818561311b565b93506129de8185602086016132f2565b6129e781613535565b840191505092915050565b6129fb816132d1565b82525050565b6000612a0c826130f8565b612a168185613137565b9350612a268185602086016132f2565b612a2f81613535565b840191505092915050565b6000612a45826130f8565b612a4f8185613148565b9350612a5f8185602086016132f2565b80840191505092915050565b6000612a78603283613137565b9150612a8382613546565b604082019050919050565b6000612a9b602683613137565b9150612aa682613595565b604082019050919050565b6000612abe602583613137565b9150612ac9826135e4565b604082019050919050565b6000612ae1601c83613137565b9150612aec82613633565b602082019050919050565b6000612b04602483613137565b9150612b0f8261365c565b604082019050919050565b6000612b27601983613137565b9150612b32826136ab565b602082019050919050565b6000612b4a602983613137565b9150612b55826136d4565b604082019050919050565b6000612b6d602e83613137565b9150612b7882613723565b604082019050919050565b6000612b90603e83613137565b9150612b9b82613772565b604082019050919050565b6000612bb3602083613137565b9150612bbe826137c1565b602082019050919050565b6000612bd6602083613137565b9150612be1826137ea565b602082019050919050565b6000612bf9601883613137565b9150612c0482613813565b602082019050919050565b6000612c1c602183613137565b9150612c278261383c565b604082019050919050565b6000612c3f60008361312c565b9150612c4a8261388b565b600082019050919050565b6000612c62602e83613137565b9150612c6d8261388e565b604082019050919050565b612c8181613275565b82525050565b612c90816132a3565b82525050565b612c9f816132a3565b82525050565b612cae816132ad565b82525050565b612cbd816132bd565b82525050565b6000612ccf8285612a3a565b9150612cdb8284612a3a565b91508190509392505050565b6000612cf282612c32565b9150819050919050565b6000602082019050612d116000830184612935565b92915050565b6000604082019050612d2c6000830185612935565b612d396020830184612935565b9392505050565b6000608082019050612d556000830187612935565b612d626020830186612935565b612d6f6040830185612c96565b8181036060830152612d8181846129b9565b905095945050505050565b6000606082019050612da16000830184612944565b92915050565b6000602082019050612dbc600083018461299b565b92915050565b600060a082019050612dd760008301886129aa565b612de46020830187612cb4565b612df16040830186612c78565b612dfe6060830185612ca5565b612e0b6080830184612ca5565b9695505050505050565b6000602082019050612e2a60008301846129f2565b92915050565b6000604082019050612e4560008301856129f2565b612e526020830184612935565b9392505050565b60006020820190508181036000830152612e738184612a01565b905092915050565b60006020820190508181036000830152612e9481612a6b565b9050919050565b60006020820190508181036000830152612eb481612a8e565b9050919050565b60006020820190508181036000830152612ed481612ab1565b9050919050565b60006020820190508181036000830152612ef481612ad4565b9050919050565b60006020820190508181036000830152612f1481612af7565b9050919050565b60006020820190508181036000830152612f3481612b1a565b9050919050565b60006020820190508181036000830152612f5481612b3d565b9050919050565b60006020820190508181036000830152612f7481612b60565b9050919050565b60006020820190508181036000830152612f9481612b83565b9050919050565b60006020820190508181036000830152612fb481612ba6565b9050919050565b60006020820190508181036000830152612fd481612bc9565b9050919050565b60006020820190508181036000830152612ff481612bec565b9050919050565b6000602082019050818103600083015261301481612c0f565b9050919050565b6000602082019050818103600083015261303481612c55565b9050919050565b60006020820190506130506000830184612c96565b92915050565b6000613060613071565b905061306c8282613357565b919050565b6000604051905090565b600067ffffffffffffffff821115613096576130956134ed565b5b602082029050602081019050919050565b600067ffffffffffffffff8211156130c2576130c16134ed565b5b6130cb82613535565b9050602081019050919050565b6000819050919050565b600060039050919050565b600081519050919050565b600081519050919050565b6000602082019050919050565b600081905092915050565b600082825260208201905092915050565b600081905092915050565b600082825260208201905092915050565b600081905092915050565b600061315e826132a3565b9150613169836132a3565b9250827fffffffffffffffffffffffffffffffffffffffffffffffffffffffffffffffff0382111561319e5761319d613402565b5b828201905092915050565b60006131b4826132a3565b91506131bf836132a3565b9250826131cf576131ce613431565b5b828204905092915050565b60006131e5826132a3565b91506131f0836132a3565b92508282101561320357613202613402565b5b828203905092915050565b600061321982613283565b9050919050565b60008115159050919050565b6000819050919050565b60007fffffffff0000000000000000000000000000000000000000000000000000000082169050919050565b6000819050613270826138dd565b919050565b600061ffff82169050919050565b600073ffffffffffffffffffffffffffffffffffffffff82169050919050565b6000819050919050565b600063ffffffff82169050919050565b600067ffffffffffffffff82169050919050565b60006132dc82613262565b9050919050565b82818337600083830152505050565b60005b838110156133105780820151818401526020810190506132f5565b8381111561331f576000848401525b50505050565b6000600282049050600182168061333d57607f821691505b602082108114156133515761335061348f565b5b50919050565b61336082613535565b810181811067ffffffffffffffff8211171561337f5761337e6134ed565b5b80604052505050565b6000613393826132a3565b91507fffffffffffffffffffffffffffffffffffffffffffffffffffffffffffffffff8214156133c6576133c5613402565b5b600182019050919050565b60006133dc826132a3565b91506133e7836132a3565b9250826133f7576133f6613431565b5b828206905092915050565b7f4e487b7100000000000000000000000000000000000000000000000000000000600052601160045260246000fd5b7f4e487b7100000000000000000000000000000000000000000000000000000000600052601260045260246000fd5b7f4e487b7100000000000000000000000000000000000000000000000000000000600052602160045260246000fd5b7f4e487b7100000000000000000000000000000000000000000000000000000000600052602260045260246000fd5b7f4e487b7100000000000000000000000000000000000000000000000000000000600052603260045260246000fd5b7f4e487b7100000000000000000000000000000000000000000000000000000000600052604160045260246000fd5b600080fd5b600080fd5b600080fd5b600080fd5b600080fd5b6000601f19601f8301169050919050565b7f4552433732313a207472616e7366657220746f206e6f6e20455243373231526560008201527f63656976657220696d706c656d656e7465720000000000000000000000000000602082015250565b7f4f776e61626c653a206e6577206f776e657220697320746865207a65726f206160008201527f6464726573730000000000000000000000000000000000000000000000000000602082015250565b7f4552433732313a207472616e736665722066726f6d20696e636f72726563742060008201527f6f776e6572000000000000000000000000000000000000000000000000000000602082015250565b7f4552433732313a20746f6b656e20616c7265616479206d696e74656400000000600082015250565b7f4552433732313a207472616e7366657220746f20746865207a65726f2061646460008201527f7265737300000000000000000000000000000000000000000000000000000000602082015250565b7f4552433732313a20617070726f766520746f2063616c6c657200000000000000600082015250565b7f4552433732313a2061646472657373207a65726f206973206e6f74206120766160008201527f6c6964206f776e65720000000000000000000000000000000000000000000000602082015250565b7f45524337323155524953746f726167653a2055524920736574206f66206e6f6e60008201527f6578697374656e7420746f6b656e000000000000000000000000000000000000602082015250565b7f4552433732313a20617070726f76652063616c6c6572206973206e6f7420746f60008201527f6b656e206f776e6572206e6f7220617070726f76656420666f7220616c6c0000602082015250565b7f4552433732313a206d696e7420746f20746865207a65726f2061646472657373600082015250565b7f4f776e61626c653a2063616c6c6572206973206e6f7420746865206f776e6572600082015250565b7f4552433732313a20696e76616c696420746f6b656e2049440000000000000000600082015250565b7f4552433732313a20617070726f76616c20746f2063757272656e74206f776e6560008201527f7200000000000000000000000000000000000000000000000000000000000000602082015250565b50565b7f4552433732313a2063616c6c6572206973206e6f7420746f6b656e206f776e6560008201527f72206e6f7220617070726f766564000000000000000000000000000000000000602082015250565b600381106138ee576138ed613460565b5b50565b6138fa8161320e565b811461390557600080fd5b50565b61391181613220565b811461391c57600080fd5b50565b61392881613236565b811461393357600080fd5b50565b61393f816132a3565b811461394a57600080fd5b5056fea2646970667358221220977b097b12fcecb5a2252a24bc10f3fc7ab37fce7e91c93e064d1e9904a7c71364736f6c63430008070033",
  "devdoc": {
    "kind": "dev",
    "methods": {
      "approve(address,uint256)": {
        "details": "See {IERC721-approve}."
      },
      "balanceOf(address)": {
        "details": "See {IERC721-balanceOf}."
      },
      "getApproved(uint256)": {
        "details": "See {IERC721-getApproved}."
      },
      "isApprovedForAll(address,address)": {
        "details": "See {IERC721-isApprovedForAll}."
      },
      "name()": {
        "details": "See {IERC721Metadata-name}."
      },
      "owner()": {
        "details": "Returns the address of the current owner."
      },
      "ownerOf(uint256)": {
        "details": "See {IERC721-ownerOf}."
      },
      "renounceOwnership()": {
        "details": "Leaves the contract without owner. It will not be possible to call `onlyOwner` functions anymore. Can only be called by the current owner. NOTE: Renouncing ownership will leave the contract without an owner, thereby removing any functionality that is only available to the owner."
      },
      "safeTransferFrom(address,address,uint256)": {
        "details": "See {IERC721-safeTransferFrom}."
      },
      "safeTransferFrom(address,address,uint256,bytes)": {
        "details": "See {IERC721-safeTransferFrom}."
      },
      "setApprovalForAll(address,bool)": {
        "details": "See {IERC721-setApprovalForAll}."
      },
      "supportsInterface(bytes4)": {
        "details": "See {IERC165-supportsInterface}."
      },
      "symbol()": {
        "details": "See {IERC721Metadata-symbol}."
      },
      "tokenURI(uint256)": {
        "details": "See {IERC721Metadata-tokenURI}."
      },
      "transferFrom(address,address,uint256)": {
        "details": "See {IERC721-transferFrom}."
      },
      "transferOwnership(address)": {
        "details": "Transfers ownership of the contract to a new account (`newOwner`). Can only be called by the current owner."
      }
    },
    "version": 1
  },
  "userdoc": {
    "kind": "user",
    "methods": {},
    "version": 1
  },
  "storageLayout": {
    "storage": [
      {
        "astId": 1005,
        "contract": "contracts/RandomIpfsNft.sol:RandomIpfsNft",
        "label": "_name",
        "offset": 0,
        "slot": "0",
        "type": "t_string_storage"
      },
      {
        "astId": 1007,
        "contract": "contracts/RandomIpfsNft.sol:RandomIpfsNft",
        "label": "_symbol",
        "offset": 0,
        "slot": "1",
        "type": "t_string_storage"
      },
      {
        "astId": 1011,
        "contract": "contracts/RandomIpfsNft.sol:RandomIpfsNft",
        "label": "_owners",
        "offset": 0,
        "slot": "2",
        "type": "t_mapping(t_uint256,t_address)"
      },
      {
        "astId": 1015,
        "contract": "contracts/RandomIpfsNft.sol:RandomIpfsNft",
        "label": "_balances",
        "offset": 0,
        "slot": "3",
        "type": "t_mapping(t_address,t_uint256)"
      },
      {
        "astId": 1019,
        "contract": "contracts/RandomIpfsNft.sol:RandomIpfsNft",
        "label": "_tokenApprovals",
        "offset": 0,
        "slot": "4",
        "type": "t_mapping(t_uint256,t_address)"
      },
      {
        "astId": 1025,
        "contract": "contracts/RandomIpfsNft.sol:RandomIpfsNft",
        "label": "_operatorApprovals",
        "offset": 0,
        "slot": "5",
        "type": "t_mapping(t_address,t_mapping(t_address,t_bool))"
      },
      {
        "astId": 1993,
        "contract": "contracts/RandomIpfsNft.sol:RandomIpfsNft",
        "label": "_tokenURIs",
        "offset": 0,
        "slot": "6",
        "type": "t_mapping(t_uint256,t_string_storage)"
      },
      {
        "astId": 874,
        "contract": "contracts/RandomIpfsNft.sol:RandomIpfsNft",
        "label": "_owner",
        "offset": 0,
        "slot": "7",
        "type": "t_address"
      },
      {
        "astId": 3596,
        "contract": "contracts/RandomIpfsNft.sol:RandomIpfsNft",
        "label": "s_requestIdToSender",
        "offset": 0,
        "slot": "8",
        "type": "t_mapping(t_uint256,t_address)"
      },
      {
        "astId": 3598,
        "contract": "contracts/RandomIpfsNft.sol:RandomIpfsNft",
        "label": "s_tokenCounter",
        "offset": 0,
        "slot": "9",
        "type": "t_uint256"
      },
      {
        "astId": 3604,
        "contract": "contracts/RandomIpfsNft.sol:RandomIpfsNft",
        "label": "s_dogTokenUris",
        "offset": 0,
        "slot": "10",
        "type": "t_array(t_string_storage)dyn_storage"
      }
    ],
    "types": {
      "t_address": {
        "encoding": "inplace",
        "label": "address",
        "numberOfBytes": "20"
      },
      "t_array(t_string_storage)dyn_storage": {
        "base": "t_string_storage",
        "encoding": "dynamic_array",
        "label": "string[]",
        "numberOfBytes": "32"
      },
      "t_bool": {
        "encoding": "inplace",
        "label": "bool",
        "numberOfBytes": "1"
      },
      "t_mapping(t_address,t_bool)": {
        "encoding": "mapping",
        "key": "t_address",
        "label": "mapping(address => bool)",
        "numberOfBytes": "32",
        "value": "t_bool"
      },
      "t_mapping(t_address,t_mapping(t_address,t_bool))": {
        "encoding": "mapping",
        "key": "t_address",
        "label": "mapping(address => mapping(address => bool))",
        "numberOfBytes": "32",
        "value": "t_mapping(t_address,t_bool)"
      },
      "t_mapping(t_address,t_uint256)": {
        "encoding": "mapping",
        "key": "t_address",
        "label": "mapping(address => uint256)",
        "numberOfBytes": "32",
        "value": "t_uint256"
      },
      "t_mapping(t_uint256,t_address)": {
        "encoding": "mapping",
        "key": "t_uint256",
        "label": "mapping(uint256 => address)",
        "numberOfBytes": "32",
        "value": "t_address"
      },
      "t_mapping(t_uint256,t_string_storage)": {
        "encoding": "mapping",
        "key": "t_uint256",
        "label": "mapping(uint256 => string)",
        "numberOfBytes": "32",
        "value": "t_string_storage"
      },
      "t_string_storage": {
        "encoding": "bytes",
        "label": "string",
        "numberOfBytes": "32"
      },
      "t_uint256": {
        "encoding": "inplace",
        "label": "uint256",
        "numberOfBytes": "32"
      }
    }
  }
}